{
  "contractName": "MyCollectible",
  "abi": [
    {
      "inputs": [],
      "stateMutability": "nonpayable",
      "type": "constructor"
    },
    {
      "anonymous": false,
      "inputs": [
        {
          "indexed": true,
          "internalType": "address",
          "name": "owner",
          "type": "address"
        },
        {
          "indexed": true,
          "internalType": "address",
          "name": "approved",
          "type": "address"
        },
        {
          "indexed": true,
          "internalType": "uint256",
          "name": "tokenId",
          "type": "uint256"
        }
      ],
      "name": "Approval",
      "type": "event"
    },
    {
      "anonymous": false,
      "inputs": [
        {
          "indexed": true,
          "internalType": "address",
          "name": "owner",
          "type": "address"
        },
        {
          "indexed": true,
          "internalType": "address",
          "name": "operator",
          "type": "address"
        },
        {
          "indexed": false,
          "internalType": "bool",
          "name": "approved",
          "type": "bool"
        }
      ],
      "name": "ApprovalForAll",
      "type": "event"
    },
    {
      "anonymous": false,
      "inputs": [
        {
          "indexed": true,
          "internalType": "address",
          "name": "from",
          "type": "address"
        },
        {
          "indexed": true,
          "internalType": "address",
          "name": "to",
          "type": "address"
        },
        {
          "indexed": true,
          "internalType": "uint256",
          "name": "tokenId",
          "type": "uint256"
        }
      ],
      "name": "Transfer",
      "type": "event"
    },
    {
      "inputs": [
        {
          "internalType": "address",
          "name": "to",
          "type": "address"
        },
        {
          "internalType": "uint256",
          "name": "tokenId",
          "type": "uint256"
        }
      ],
      "name": "approve",
      "outputs": [],
      "stateMutability": "nonpayable",
      "type": "function"
    },
    {
      "inputs": [
        {
          "internalType": "address",
          "name": "owner",
          "type": "address"
        }
      ],
      "name": "balanceOf",
      "outputs": [
        {
          "internalType": "uint256",
          "name": "",
          "type": "uint256"
        }
      ],
      "stateMutability": "view",
      "type": "function"
    },
    {
      "inputs": [
        {
          "internalType": "uint256",
          "name": "",
          "type": "uint256"
        }
      ],
      "name": "collectibles",
      "outputs": [
        {
          "internalType": "string",
          "name": "",
          "type": "string"
        }
      ],
      "stateMutability": "view",
      "type": "function"
    },
    {
      "inputs": [
        {
          "internalType": "uint256",
          "name": "tokenId",
          "type": "uint256"
        }
      ],
      "name": "getApproved",
      "outputs": [
        {
          "internalType": "address",
          "name": "",
          "type": "address"
        }
      ],
      "stateMutability": "view",
      "type": "function"
    },
    {
      "inputs": [
        {
          "internalType": "address",
          "name": "owner",
          "type": "address"
        },
        {
          "internalType": "address",
          "name": "operator",
          "type": "address"
        }
      ],
      "name": "isApprovedForAll",
      "outputs": [
        {
          "internalType": "bool",
          "name": "",
          "type": "bool"
        }
      ],
      "stateMutability": "view",
      "type": "function"
    },
    {
      "inputs": [],
      "name": "name",
      "outputs": [
        {
          "internalType": "string",
          "name": "",
          "type": "string"
        }
      ],
      "stateMutability": "view",
      "type": "function"
    },
    {
      "inputs": [
        {
          "internalType": "uint256",
          "name": "tokenId",
          "type": "uint256"
        }
      ],
      "name": "ownerOf",
      "outputs": [
        {
          "internalType": "address",
          "name": "",
          "type": "address"
        }
      ],
      "stateMutability": "view",
      "type": "function"
    },
    {
      "inputs": [
        {
          "internalType": "address",
          "name": "from",
          "type": "address"
        },
        {
          "internalType": "address",
          "name": "to",
          "type": "address"
        },
        {
          "internalType": "uint256",
          "name": "tokenId",
          "type": "uint256"
        }
      ],
      "name": "safeTransferFrom",
      "outputs": [],
      "stateMutability": "nonpayable",
      "type": "function"
    },
    {
      "inputs": [
        {
          "internalType": "address",
          "name": "from",
          "type": "address"
        },
        {
          "internalType": "address",
          "name": "to",
          "type": "address"
        },
        {
          "internalType": "uint256",
          "name": "tokenId",
          "type": "uint256"
        },
        {
          "internalType": "bytes",
          "name": "_data",
          "type": "bytes"
        }
      ],
      "name": "safeTransferFrom",
      "outputs": [],
      "stateMutability": "nonpayable",
      "type": "function"
    },
    {
      "inputs": [
        {
          "internalType": "address",
          "name": "operator",
          "type": "address"
        },
        {
          "internalType": "bool",
          "name": "approved",
          "type": "bool"
        }
      ],
      "name": "setApprovalForAll",
      "outputs": [],
      "stateMutability": "nonpayable",
      "type": "function"
    },
    {
      "inputs": [],
      "name": "symbol",
      "outputs": [
        {
          "internalType": "string",
          "name": "",
          "type": "string"
        }
      ],
      "stateMutability": "view",
      "type": "function"
    },
    {
      "inputs": [
        {
          "internalType": "uint256",
          "name": "index",
          "type": "uint256"
        }
      ],
      "name": "tokenByIndex",
      "outputs": [
        {
          "internalType": "uint256",
          "name": "",
          "type": "uint256"
        }
      ],
      "stateMutability": "view",
      "type": "function"
    },
    {
      "inputs": [
        {
          "internalType": "address",
          "name": "owner",
          "type": "address"
        },
        {
          "internalType": "uint256",
          "name": "index",
          "type": "uint256"
        }
      ],
      "name": "tokenOfOwnerByIndex",
      "outputs": [
        {
          "internalType": "uint256",
          "name": "",
          "type": "uint256"
        }
      ],
      "stateMutability": "view",
      "type": "function"
    },
    {
      "inputs": [
        {
          "internalType": "uint256",
          "name": "tokenId",
          "type": "uint256"
        }
      ],
      "name": "tokenURI",
      "outputs": [
        {
          "internalType": "string",
          "name": "",
          "type": "string"
        }
      ],
      "stateMutability": "view",
      "type": "function"
    },
    {
      "inputs": [],
      "name": "totalSupply",
      "outputs": [
        {
          "internalType": "uint256",
          "name": "",
          "type": "uint256"
        }
      ],
      "stateMutability": "view",
      "type": "function"
    },
    {
      "inputs": [
        {
          "internalType": "address",
          "name": "from",
          "type": "address"
        },
        {
          "internalType": "address",
          "name": "to",
          "type": "address"
        },
        {
          "internalType": "uint256",
          "name": "tokenId",
          "type": "uint256"
        }
      ],
      "name": "transferFrom",
      "outputs": [],
      "stateMutability": "nonpayable",
      "type": "function"
    },
    {
      "inputs": [
        {
          "internalType": "bytes4",
          "name": "interfaceId",
          "type": "bytes4"
        }
      ],
      "name": "supportsInterface",
      "outputs": [
        {
          "internalType": "bool",
          "name": "",
          "type": "bool"
        }
      ],
      "stateMutability": "view",
      "type": "function"
    },
    {
      "inputs": [
        {
          "internalType": "string",
          "name": "_collectible",
          "type": "string"
        }
      ],
      "name": "mint",
      "outputs": [],
      "stateMutability": "nonpayable",
      "type": "function"
    }
  ],
  "bytecode": "0x60806040523480156200001157600080fd5b506040518060400160405280600d81526020017f4d79436f6c6c65637469626c65000000000000000000000000000000000000008152506040518060400160405280600d81526020017f4d59434f4c4c45435449424c4500000000000000000000000000000000000000815250816000908051906020019062000096929190620000b8565b508060019080519060200190620000af929190620000b8565b505050620001cd565b828054620000c69062000197565b90600052602060002090601f016020900481019282620000ea576000855562000136565b82601f106200010557805160ff191683800117855562000136565b8280016001018555821562000136579182015b828111156200013557825182559160200191906001019062000118565b5b50905062000145919062000149565b5090565b5b80821115620001645760008160009055506001016200014a565b5090565b7f4e487b7100000000000000000000000000000000000000000000000000000000600052602260045260246000fd5b60006002820490506001821680620001b057607f821691505b60208210811415620001c757620001c662000168565b5b50919050565b6131c080620001dd6000396000f3fe608060405234801561001057600080fd5b50600436106101165760003560e01c80634f6ccce7116100a2578063a22cb46511610071578063a22cb46514610319578063b88d4fde14610335578063c87b56dd14610351578063d85d3d2714610381578063e985e9c51461039d57610116565b80634f6ccce71461026b5780636352211e1461029b57806370a08231146102cb57806395d89b41146102fb57610116565b80630a09859d116100e95780630a09859d146101b557806318160ddd146101e557806323b872dd146102035780632f745c591461021f57806342842e0e1461024f57610116565b806301ffc9a71461011b57806306fdde031461014b578063081812fc14610169578063095ea7b314610199575b600080fd5b61013560048036038101906101309190611eef565b6103cd565b6040516101429190611f37565b60405180910390f35b6101536103df565b6040516101609190611feb565b60405180910390f35b610183600480360381019061017e9190612043565b610471565b60405161019091906120b1565b60405180910390f35b6101b360048036038101906101ae91906120f8565b6104f6565b005b6101cf60048036038101906101ca9190612043565b61060e565b6040516101dc9190611feb565b60405180910390f35b6101ed6106ba565b6040516101fa9190612147565b60405180910390f35b61021d60048036038101906102189190612162565b6106c7565b005b610239600480360381019061023491906120f8565b610727565b6040516102469190612147565b60405180910390f35b61026960048036038101906102649190612162565b6107cc565b005b61028560048036038101906102809190612043565b6107ec565b6040516102929190612147565b60405180910390f35b6102b560048036038101906102b09190612043565b61085d565b6040516102c291906120b1565b60405180910390f35b6102e560048036038101906102e091906121b5565b61090f565b6040516102f29190612147565b60405180910390f35b6103036109c7565b6040516103109190611feb565b60405180910390f35b610333600480360381019061032e919061220e565b610a59565b005b61034f600480360381019061034a9190612383565b610bda565b005b61036b60048036038101906103669190612043565b610c3c565b6040516103789190611feb565b60405180910390f35b61039b600480360381019061039691906124a7565b610ce3565b005b6103b760048036038101906103b291906124f0565b610da4565b6040516103c49190611f37565b60405180910390f35b60006103d882610e38565b9050919050565b6060600080546103ee9061255f565b80601f016020809104026020016040519081016040528092919081815260200182805461041a9061255f565b80156104675780601f1061043c57610100808354040283529160200191610467565b820191906000526020600020905b81548152906001019060200180831161044a57829003601f168201915b5050505050905090565b600061047c82610eb2565b6104bb576040517f08c379a00000000000000000000000000000000000000000000000000000000081526004016104b290612603565b60405180910390fd5b6004600083815260200190815260200160002060009054906101000a900473ffffffffffffffffffffffffffffffffffffffff169050919050565b60006105018261085d565b90508073ffffffffffffffffffffffffffffffffffffffff168373ffffffffffffffffffffffffffffffffffffffff161415610572576040517f08c379a000000000000000000000000000000000000000000000000000000000815260040161056990612695565b60405180910390fd5b8073ffffffffffffffffffffffffffffffffffffffff16610591610f1e565b73ffffffffffffffffffffffffffffffffffffffff1614806105c057506105bf816105ba610f1e565b610da4565b5b6105ff576040517f08c379a00000000000000000000000000000000000000000000000000000000081526004016105f690612727565b60405180910390fd5b6106098383610f26565b505050565b600a818154811061061e57600080fd5b9060005260206000200160009150905080546106399061255f565b80601f01602080910402602001604051908101604052809291908181526020018280546106659061255f565b80156106b25780601f10610687576101008083540402835291602001916106b2565b820191906000526020600020905b81548152906001019060200180831161069557829003601f168201915b505050505081565b6000600880549050905090565b6106d86106d2610f1e565b82610fdf565b610717576040517f08c379a000000000000000000000000000000000000000000000000000000000815260040161070e906127b9565b60405180910390fd5b6107228383836110bd565b505050565b60006107328361090f565b8210610773576040517f08c379a000000000000000000000000000000000000000000000000000000000815260040161076a9061284b565b60405180910390fd5b600660008473ffffffffffffffffffffffffffffffffffffffff1673ffffffffffffffffffffffffffffffffffffffff168152602001908152602001600020600083815260200190815260200160002054905092915050565b6107e783838360405180602001604052806000815250610bda565b505050565b60006107f66106ba565b8210610837576040517f08c379a000000000000000000000000000000000000000000000000000000000815260040161082e906128dd565b60405180910390fd5b6008828154811061084b5761084a6128fd565b5b90600052602060002001549050919050565b6000806002600084815260200190815260200160002060009054906101000a900473ffffffffffffffffffffffffffffffffffffffff169050600073ffffffffffffffffffffffffffffffffffffffff168173ffffffffffffffffffffffffffffffffffffffff161415610906576040517f08c379a00000000000000000000000000000000000000000000000000000000081526004016108fd9061299e565b60405180910390fd5b80915050919050565b60008073ffffffffffffffffffffffffffffffffffffffff168273ffffffffffffffffffffffffffffffffffffffff161415610980576040517f08c379a000000000000000000000000000000000000000000000000000000000815260040161097790612a30565b60405180910390fd5b600360008373ffffffffffffffffffffffffffffffffffffffff1673ffffffffffffffffffffffffffffffffffffffff168152602001908152602001600020549050919050565b6060600180546109d69061255f565b80601f0160208091040260200160405190810160405280929190818152602001828054610a029061255f565b8015610a4f5780601f10610a2457610100808354040283529160200191610a4f565b820191906000526020600020905b815481529060010190602001808311610a3257829003601f168201915b5050505050905090565b610a61610f1e565b73ffffffffffffffffffffffffffffffffffffffff168273ffffffffffffffffffffffffffffffffffffffff161415610acf576040517f08c379a0000000000000000000000000000000000000000000000000000000008152600401610ac690612a9c565b60405180910390fd5b8060056000610adc610f1e565b73ffffffffffffffffffffffffffffffffffffffff1673ffffffffffffffffffffffffffffffffffffffff16815260200190815260200160002060008473ffffffffffffffffffffffffffffffffffffffff1673ffffffffffffffffffffffffffffffffffffffff16815260200190815260200160002060006101000a81548160ff0219169083151502179055508173ffffffffffffffffffffffffffffffffffffffff16610b89610f1e565b73ffffffffffffffffffffffffffffffffffffffff167f17307eab39ab6107e8899845ad3d59bd9653f200f220920489ca2b5937696c3183604051610bce9190611f37565b60405180910390a35050565b610beb610be5610f1e565b83610fdf565b610c2a576040517f08c379a0000000000000000000000000000000000000000000000000000000008152600401610c21906127b9565b60405180910390fd5b610c3684848484611319565b50505050565b6060610c4782610eb2565b610c86576040517f08c379a0000000000000000000000000000000000000000000000000000000008152600401610c7d90612b2e565b60405180910390fd5b6000610c90611375565b90506000815111610cb05760405180602001604052806000815250610cdb565b80610cba8461138c565b604051602001610ccb929190612b8a565b6040516020818303038152906040525b915050919050565b600b81604051610cf39190612bae565b908152602001604051809103902060009054906101000a900460ff1615610d1957600080fd5b600a81908060018154018082558091505060019003906000526020600020016000909190919091509080519060200190610d54929190611de0565b506000600a805490509050610d6933826114ed565b6001600b83604051610d7b9190612bae565b908152602001604051809103902060006101000a81548160ff0219169083151502179055505050565b6000600560008473ffffffffffffffffffffffffffffffffffffffff1673ffffffffffffffffffffffffffffffffffffffff16815260200190815260200160002060008373ffffffffffffffffffffffffffffffffffffffff1673ffffffffffffffffffffffffffffffffffffffff16815260200190815260200160002060009054906101000a900460ff16905092915050565b60007f780e9d63000000000000000000000000000000000000000000000000000000007bffffffffffffffffffffffffffffffffffffffffffffffffffffffff1916827bffffffffffffffffffffffffffffffffffffffffffffffffffffffff19161480610eab5750610eaa826116bb565b5b9050919050565b60008073ffffffffffffffffffffffffffffffffffffffff166002600084815260200190815260200160002060009054906101000a900473ffffffffffffffffffffffffffffffffffffffff1673ffffffffffffffffffffffffffffffffffffffff1614159050919050565b600033905090565b816004600083815260200190815260200160002060006101000a81548173ffffffffffffffffffffffffffffffffffffffff021916908373ffffffffffffffffffffffffffffffffffffffff160217905550808273ffffffffffffffffffffffffffffffffffffffff16610f998361085d565b73ffffffffffffffffffffffffffffffffffffffff167f8c5be1e5ebec7d5bd14f71427d1e84f3dd0314c0f7b2291e5b200ac8c7c3b92560405160405180910390a45050565b6000610fea82610eb2565b611029576040517f08c379a000000000000000000000000000000000000000000000000000000000815260040161102090612c37565b60405180910390fd5b60006110348361085d565b90508073ffffffffffffffffffffffffffffffffffffffff168473ffffffffffffffffffffffffffffffffffffffff1614806110a357508373ffffffffffffffffffffffffffffffffffffffff1661108b84610471565b73ffffffffffffffffffffffffffffffffffffffff16145b806110b457506110b38185610da4565b5b91505092915050565b8273ffffffffffffffffffffffffffffffffffffffff166110dd8261085d565b73ffffffffffffffffffffffffffffffffffffffff1614611133576040517f08c379a000000000000000000000000000000000000000000000000000000000815260040161112a90612cc9565b60405180910390fd5b600073ffffffffffffffffffffffffffffffffffffffff168273ffffffffffffffffffffffffffffffffffffffff1614156111a3576040517f08c379a000000000000000000000000000000000000000000000000000000000815260040161119a90612d5b565b60405180910390fd5b6111ae83838361179d565b6111b9600082610f26565b6001600360008573ffffffffffffffffffffffffffffffffffffffff1673ffffffffffffffffffffffffffffffffffffffff16815260200190815260200160002060008282546112099190612daa565b925050819055506001600360008473ffffffffffffffffffffffffffffffffffffffff1673ffffffffffffffffffffffffffffffffffffffff16815260200190815260200160002060008282546112609190612dde565b92505081905550816002600083815260200190815260200160002060006101000a81548173ffffffffffffffffffffffffffffffffffffffff021916908373ffffffffffffffffffffffffffffffffffffffff160217905550808273ffffffffffffffffffffffffffffffffffffffff168473ffffffffffffffffffffffffffffffffffffffff167fddf252ad1be2c89b69c2b068fc378daa952ba7f163c4a11628f55a4df523b3ef60405160405180910390a4505050565b6113248484846110bd565b611330848484846117ad565b61136f576040517f08c379a000000000000000000000000000000000000000000000000000000000815260040161136690612ea6565b60405180910390fd5b50505050565b606060405180602001604052806000815250905090565b606060008214156113d4576040518060400160405280600181526020017f300000000000000000000000000000000000000000000000000000000000000081525090506114e8565b600082905060005b600082146114065780806113ef90612ec6565b915050600a826113ff9190612f3e565b91506113dc565b60008167ffffffffffffffff81111561142257611421612258565b5b6040519080825280601f01601f1916602001820160405280156114545781602001600182028036833780820191505090505b5090505b600085146114e15760018261146d9190612daa565b9150600a8561147c9190612f6f565b60306114889190612dde565b60f81b81838151811061149e5761149d6128fd565b5b60200101907effffffffffffffffffffffffffffffffffffffffffffffffffffffffffffff1916908160001a905350600a856114da9190612f3e565b9450611458565b8093505050505b919050565b600073ffffffffffffffffffffffffffffffffffffffff168273ffffffffffffffffffffffffffffffffffffffff16141561155d576040517f08c379a000000000000000000000000000000000000000000000000000000000815260040161155490612fec565b60405180910390fd5b61156681610eb2565b156115a6576040517f08c379a000000000000000000000000000000000000000000000000000000000815260040161159d90613058565b60405180910390fd5b6115b26000838361179d565b6001600360008473ffffffffffffffffffffffffffffffffffffffff1673ffffffffffffffffffffffffffffffffffffffff16815260200190815260200160002060008282546116029190612dde565b92505081905550816002600083815260200190815260200160002060006101000a81548173ffffffffffffffffffffffffffffffffffffffff021916908373ffffffffffffffffffffffffffffffffffffffff160217905550808273ffffffffffffffffffffffffffffffffffffffff16600073ffffffffffffffffffffffffffffffffffffffff167fddf252ad1be2c89b69c2b068fc378daa952ba7f163c4a11628f55a4df523b3ef60405160405180910390a45050565b60007f80ac58cd000000000000000000000000000000000000000000000000000000007bffffffffffffffffffffffffffffffffffffffffffffffffffffffff1916827bffffffffffffffffffffffffffffffffffffffffffffffffffffffff1916148061178657507f5b5e139f000000000000000000000000000000000000000000000000000000007bffffffffffffffffffffffffffffffffffffffffffffffffffffffff1916827bffffffffffffffffffffffffffffffffffffffffffffffffffffffff1916145b80611796575061179582611944565b5b9050919050565b6117a88383836119ae565b505050565b60006117ce8473ffffffffffffffffffffffffffffffffffffffff16611ac2565b15611937578373ffffffffffffffffffffffffffffffffffffffff1663150b7a026117f7610f1e565b8786866040518563ffffffff1660e01b815260040161181994939291906130cd565b602060405180830381600087803b15801561183357600080fd5b505af192505050801561186457506040513d601f19601f82011682018060405250810190611861919061312e565b60015b6118e7573d8060008114611894576040519150601f19603f3d011682016040523d82523d6000602084013e611899565b606091505b506000815114156118df576040517f08c379a00000000000000000000000000000000000000000000000000000000081526004016118d690612ea6565b60405180910390fd5b805181602001fd5b63150b7a0260e01b7bffffffffffffffffffffffffffffffffffffffffffffffffffffffff1916817bffffffffffffffffffffffffffffffffffffffffffffffffffffffff19161491505061193c565b600190505b949350505050565b60007f01ffc9a7000000000000000000000000000000000000000000000000000000007bffffffffffffffffffffffffffffffffffffffffffffffffffffffff1916827bffffffffffffffffffffffffffffffffffffffffffffffffffffffff1916149050919050565b6119b9838383611ad5565b600073ffffffffffffffffffffffffffffffffffffffff168373ffffffffffffffffffffffffffffffffffffffff1614156119fc576119f781611ada565b611a3b565b8173ffffffffffffffffffffffffffffffffffffffff168373ffffffffffffffffffffffffffffffffffffffff1614611a3a57611a398382611b23565b5b5b600073ffffffffffffffffffffffffffffffffffffffff168273ffffffffffffffffffffffffffffffffffffffff161415611a7e57611a7981611c90565b611abd565b8273ffffffffffffffffffffffffffffffffffffffff168273ffffffffffffffffffffffffffffffffffffffff1614611abc57611abb8282611d61565b5b5b505050565b600080823b905060008111915050919050565b505050565b6008805490506009600083815260200190815260200160002081905550600881908060018154018082558091505060019003906000526020600020016000909190919091505550565b60006001611b308461090f565b611b3a9190612daa565b9050600060076000848152602001908152602001600020549050818114611c1f576000600660008673ffffffffffffffffffffffffffffffffffffffff1673ffffffffffffffffffffffffffffffffffffffff168152602001908152602001600020600084815260200190815260200160002054905080600660008773ffffffffffffffffffffffffffffffffffffffff1673ffffffffffffffffffffffffffffffffffffffff168152602001908152602001600020600084815260200190815260200160002081905550816007600083815260200190815260200160002081905550505b6007600084815260200190815260200160002060009055600660008573ffffffffffffffffffffffffffffffffffffffff1673ffffffffffffffffffffffffffffffffffffffff16815260200190815260200160002060008381526020019081526020016000206000905550505050565b60006001600880549050611ca49190612daa565b9050600060096000848152602001908152602001600020549050600060088381548110611cd457611cd36128fd565b5b906000526020600020015490508060088381548110611cf657611cf56128fd565b5b906000526020600020018190555081600960008381526020019081526020016000208190555060096000858152602001908152602001600020600090556008805480611d4557611d4461315b565b5b6001900381819060005260206000200160009055905550505050565b6000611d6c8361090f565b905081600660008573ffffffffffffffffffffffffffffffffffffffff1673ffffffffffffffffffffffffffffffffffffffff168152602001908152602001600020600083815260200190815260200160002081905550806007600084815260200190815260200160002081905550505050565b828054611dec9061255f565b90600052602060002090601f016020900481019282611e0e5760008555611e55565b82601f10611e2757805160ff1916838001178555611e55565b82800160010185558215611e55579182015b82811115611e54578251825591602001919060010190611e39565b5b509050611e629190611e66565b5090565b5b80821115611e7f576000816000905550600101611e67565b5090565b6000604051905090565b600080fd5b600080fd5b60007fffffffff0000000000000000000000000000000000000000000000000000000082169050919050565b611ecc81611e97565b8114611ed757600080fd5b50565b600081359050611ee981611ec3565b92915050565b600060208284031215611f0557611f04611e8d565b5b6000611f1384828501611eda565b91505092915050565b60008115159050919050565b611f3181611f1c565b82525050565b6000602082019050611f4c6000830184611f28565b92915050565b600081519050919050565b600082825260208201905092915050565b60005b83811015611f8c578082015181840152602081019050611f71565b83811115611f9b576000848401525b50505050565b6000601f19601f8301169050919050565b6000611fbd82611f52565b611fc78185611f5d565b9350611fd7818560208601611f6e565b611fe081611fa1565b840191505092915050565b600060208201905081810360008301526120058184611fb2565b905092915050565b6000819050919050565b6120208161200d565b811461202b57600080fd5b50565b60008135905061203d81612017565b92915050565b60006020828403121561205957612058611e8d565b5b60006120678482850161202e565b91505092915050565b600073ffffffffffffffffffffffffffffffffffffffff82169050919050565b600061209b82612070565b9050919050565b6120ab81612090565b82525050565b60006020820190506120c660008301846120a2565b92915050565b6120d581612090565b81146120e057600080fd5b50565b6000813590506120f2816120cc565b92915050565b6000806040838503121561210f5761210e611e8d565b5b600061211d858286016120e3565b925050602061212e8582860161202e565b9150509250929050565b6121418161200d565b82525050565b600060208201905061215c6000830184612138565b92915050565b60008060006060848603121561217b5761217a611e8d565b5b6000612189868287016120e3565b935050602061219a868287016120e3565b92505060406121ab8682870161202e565b9150509250925092565b6000602082840312156121cb576121ca611e8d565b5b60006121d9848285016120e3565b91505092915050565b6121eb81611f1c565b81146121f657600080fd5b50565b600081359050612208816121e2565b92915050565b6000806040838503121561222557612224611e8d565b5b6000612233858286016120e3565b9250506020612244858286016121f9565b9150509250929050565b600080fd5b600080fd5b7f4e487b7100000000000000000000000000000000000000000000000000000000600052604160045260246000fd5b61229082611fa1565b810181811067ffffffffffffffff821117156122af576122ae612258565b5b80604052505050565b60006122c2611e83565b90506122ce8282612287565b919050565b600067ffffffffffffffff8211156122ee576122ed612258565b5b6122f782611fa1565b9050602081019050919050565b82818337600083830152505050565b6000612326612321846122d3565b6122b8565b90508281526020810184848401111561234257612341612253565b5b61234d848285612304565b509392505050565b600082601f83011261236a5761236961224e565b5b813561237a848260208601612313565b91505092915050565b6000806000806080858703121561239d5761239c611e8d565b5b60006123ab878288016120e3565b94505060206123bc878288016120e3565b93505060406123cd8782880161202e565b925050606085013567ffffffffffffffff8111156123ee576123ed611e92565b5b6123fa87828801612355565b91505092959194509250565b600067ffffffffffffffff82111561242157612420612258565b5b61242a82611fa1565b9050602081019050919050565b600061244a61244584612406565b6122b8565b90508281526020810184848401111561246657612465612253565b5b612471848285612304565b509392505050565b600082601f83011261248e5761248d61224e565b5b813561249e848260208601612437565b91505092915050565b6000602082840312156124bd576124bc611e8d565b5b600082013567ffffffffffffffff8111156124db576124da611e92565b5b6124e784828501612479565b91505092915050565b6000806040838503121561250757612506611e8d565b5b6000612515858286016120e3565b9250506020612526858286016120e3565b9150509250929050565b7f4e487b7100000000000000000000000000000000000000000000000000000000600052602260045260246000fd5b6000600282049050600182168061257757607f821691505b6020821081141561258b5761258a612530565b5b50919050565b7f4552433732313a20617070726f76656420717565727920666f72206e6f6e657860008201527f697374656e7420746f6b656e0000000000000000000000000000000000000000602082015250565b60006125ed602c83611f5d565b91506125f882612591565b604082019050919050565b6000602082019050818103600083015261261c816125e0565b9050919050565b7f4552433732313a20617070726f76616c20746f2063757272656e74206f776e6560008201527f7200000000000000000000000000000000000000000000000000000000000000602082015250565b600061267f602183611f5d565b915061268a82612623565b604082019050919050565b600060208201905081810360008301526126ae81612672565b9050919050565b7f4552433732313a20617070726f76652063616c6c6572206973206e6f74206f7760008201527f6e6572206e6f7220617070726f76656420666f7220616c6c0000000000000000602082015250565b6000612711603883611f5d565b915061271c826126b5565b604082019050919050565b6000602082019050818103600083015261274081612704565b9050919050565b7f4552433732313a207472616e736665722063616c6c6572206973206e6f74206f60008201527f776e6572206e6f7220617070726f766564000000000000000000000000000000602082015250565b60006127a3603183611f5d565b91506127ae82612747565b604082019050919050565b600060208201905081810360008301526127d281612796565b9050919050565b7f455243373231456e756d657261626c653a206f776e657220696e646578206f7560008201527f74206f6620626f756e6473000000000000000000000000000000000000000000602082015250565b6000612835602b83611f5d565b9150612840826127d9565b604082019050919050565b6000602082019050818103600083015261286481612828565b9050919050565b7f455243373231456e756d657261626c653a20676c6f62616c20696e646578206f60008201527f7574206f6620626f756e64730000000000000000000000000000000000000000602082015250565b60006128c7602c83611f5d565b91506128d28261286b565b604082019050919050565b600060208201905081810360008301526128f6816128ba565b9050919050565b7f4e487b7100000000000000000000000000000000000000000000000000000000600052603260045260246000fd5b7f4552433732313a206f776e657220717565727920666f72206e6f6e657869737460008201527f656e7420746f6b656e0000000000000000000000000000000000000000000000602082015250565b6000612988602983611f5d565b91506129938261292c565b604082019050919050565b600060208201905081810360008301526129b78161297b565b9050919050565b7f4552433732313a2062616c616e636520717565727920666f7220746865207a6560008201527f726f206164647265737300000000000000000000000000000000000000000000602082015250565b6000612a1a602a83611f5d565b9150612a25826129be565b604082019050919050565b60006020820190508181036000830152612a4981612a0d565b9050919050565b7f4552433732313a20617070726f766520746f2063616c6c657200000000000000600082015250565b6000612a86601983611f5d565b9150612a9182612a50565b602082019050919050565b60006020820190508181036000830152612ab581612a79565b9050919050565b7f4552433732314d657461646174613a2055524920717565727920666f72206e6f60008201527f6e6578697374656e7420746f6b656e0000000000000000000000000000000000602082015250565b6000612b18602f83611f5d565b9150612b2382612abc565b604082019050919050565b60006020820190508181036000830152612b4781612b0b565b9050919050565b600081905092915050565b6000612b6482611f52565b612b6e8185612b4e565b9350612b7e818560208601611f6e565b80840191505092915050565b6000612b968285612b59565b9150612ba28284612b59565b91508190509392505050565b6000612bba8284612b59565b915081905092915050565b7f4552433732313a206f70657261746f7220717565727920666f72206e6f6e657860008201527f697374656e7420746f6b656e0000000000000000000000000000000000000000602082015250565b6000612c21602c83611f5d565b9150612c2c82612bc5565b604082019050919050565b60006020820190508181036000830152612c5081612c14565b9050919050565b7f4552433732313a207472616e73666572206f6620746f6b656e2074686174206960008201527f73206e6f74206f776e0000000000000000000000000000000000000000000000602082015250565b6000612cb3602983611f5d565b9150612cbe82612c57565b604082019050919050565b60006020820190508181036000830152612ce281612ca6565b9050919050565b7f4552433732313a207472616e7366657220746f20746865207a65726f2061646460008201527f7265737300000000000000000000000000000000000000000000000000000000602082015250565b6000612d45602483611f5d565b9150612d5082612ce9565b604082019050919050565b60006020820190508181036000830152612d7481612d38565b9050919050565b7f4e487b7100000000000000000000000000000000000000000000000000000000600052601160045260246000fd5b6000612db58261200d565b9150612dc08361200d565b925082821015612dd357612dd2612d7b565b5b828203905092915050565b6000612de98261200d565b9150612df48361200d565b9250827fffffffffffffffffffffffffffffffffffffffffffffffffffffffffffffffff03821115612e2957612e28612d7b565b5b828201905092915050565b7f4552433732313a207472616e7366657220746f206e6f6e20455243373231526560008201527f63656976657220696d706c656d656e7465720000000000000000000000000000602082015250565b6000612e90603283611f5d565b9150612e9b82612e34565b604082019050919050565b60006020820190508181036000830152612ebf81612e83565b9050919050565b6000612ed18261200d565b91507fffffffffffffffffffffffffffffffffffffffffffffffffffffffffffffffff821415612f0457612f03612d7b565b5b600182019050919050565b7f4e487b7100000000000000000000000000000000000000000000000000000000600052601260045260246000fd5b6000612f498261200d565b9150612f548361200d565b925082612f6457612f63612f0f565b5b828204905092915050565b6000612f7a8261200d565b9150612f858361200d565b925082612f9557612f94612f0f565b5b828206905092915050565b7f4552433732313a206d696e7420746f20746865207a65726f2061646472657373600082015250565b6000612fd6602083611f5d565b9150612fe182612fa0565b602082019050919050565b6000602082019050818103600083015261300581612fc9565b9050919050565b7f4552433732313a20746f6b656e20616c7265616479206d696e74656400000000600082015250565b6000613042601c83611f5d565b915061304d8261300c565b602082019050919050565b6000602082019050818103600083015261307181613035565b9050919050565b600081519050919050565b600082825260208201905092915050565b600061309f82613078565b6130a98185613083565b93506130b9818560208601611f6e565b6130c281611fa1565b840191505092915050565b60006080820190506130e260008301876120a2565b6130ef60208301866120a2565b6130fc6040830185612138565b818103606083015261310e8184613094565b905095945050505050565b60008151905061312881611ec3565b92915050565b60006020828403121561314457613143611e8d565b5b600061315284828501613119565b91505092915050565b7f4e487b7100000000000000000000000000000000000000000000000000000000600052603160045260246000fdfea264697066735822122059991781df0dc0b734b42d39465683b00720f85735304f7b89b9f6ff11a2087e64736f6c63430008090033",
  "immutableReferences": {},
  "source": "// SPDX-License-Identifier: Apache-2.0\r\n\r\npragma solidity ^0.8.0;\r\n\r\nimport \"@openzeppelin/contracts/token/ERC721/ERC721.sol\";\r\nimport \"@openzeppelin/contracts/token/ERC721/extensions/ERC721Enumerable.sol\";\r\n\r\ncontract MyCollectible is ERC721, ERC721Enumerable {\r\n    string[] public collectibles;\r\n    mapping(string => bool) _collectibleExists;\r\n\r\n    constructor() ERC721(\"MyCollectible\", \"MYCOLLECTIBLE\") {}\r\n\r\n    function _beforeTokenTransfer(\r\n        address from,\r\n        address to,\r\n        uint256 tokenId\r\n    ) internal override(ERC721, ERC721Enumerable) {\r\n        super._beforeTokenTransfer(from, to, tokenId);\r\n    }\r\n\r\n    function supportsInterface(bytes4 interfaceId)\r\n        public\r\n        view\r\n        override(ERC721, ERC721Enumerable)\r\n        returns (bool)\r\n    {\r\n        return super.supportsInterface(interfaceId);\r\n    }\r\n\r\n    //TODO needs minter role not public\r\n    //TODO metadata\r\n    function mint(string memory _collectible) public {\r\n        require(!_collectibleExists[_collectible]);\r\n        collectibles.push(_collectible);\r\n        uint256 _uid = collectibles.length;\r\n        _mint(msg.sender, _uid);\r\n        _collectibleExists[_collectible] = true;\r\n    }\r\n}\r\n",
  "sourcePath": "C:\\Users\\Michael\\git\\smart-contract-marketplace\\src\\contracts\\MyCollectible.sol",
  "compiler": {
    "name": "solc",
    "version": "0.8.9+commit.e5eed63a.Emscripten.clang"
  },
  "schemaVersion": "3.4.3",
  "updatedAt": "2021-10-24T15:27:51.665Z",
  "devdoc": {
    "kind": "dev",
    "methods": {
      "approve(address,uint256)": {
        "details": "See {IERC721-approve}."
      },
      "balanceOf(address)": {
        "details": "See {IERC721-balanceOf}."
      },
      "getApproved(uint256)": {
        "details": "See {IERC721-getApproved}."
      },
      "isApprovedForAll(address,address)": {
        "details": "See {IERC721-isApprovedForAll}."
      },
      "name()": {
        "details": "See {IERC721Metadata-name}."
      },
      "ownerOf(uint256)": {
        "details": "See {IERC721-ownerOf}."
      },
      "safeTransferFrom(address,address,uint256)": {
        "details": "See {IERC721-safeTransferFrom}."
      },
      "safeTransferFrom(address,address,uint256,bytes)": {
        "details": "See {IERC721-safeTransferFrom}."
      },
      "setApprovalForAll(address,bool)": {
        "details": "See {IERC721-setApprovalForAll}."
      },
      "symbol()": {
        "details": "See {IERC721Metadata-symbol}."
      },
      "tokenByIndex(uint256)": {
        "details": "See {IERC721Enumerable-tokenByIndex}."
      },
      "tokenOfOwnerByIndex(address,uint256)": {
        "details": "See {IERC721Enumerable-tokenOfOwnerByIndex}."
      },
      "tokenURI(uint256)": {
        "details": "See {IERC721Metadata-tokenURI}."
      },
      "totalSupply()": {
        "details": "See {IERC721Enumerable-totalSupply}."
      },
      "transferFrom(address,address,uint256)": {
        "details": "See {IERC721-transferFrom}."
      }
    },
    "version": 1
  },
  "userdoc": {
    "kind": "user",
    "methods": {},
    "version": 1
  }
}